:020000040000FA
:100000000C9417030C943F030C943F030C943F0390
:100010000C943F030C943F030C943F030C943F0358
:100020000C943F030C943F030C943F030C943F0348
:100030000C943F030C943F030C943F030C943F0338
:100040000C9403160C943F030C9473160C944D16E9
:100050000C943F030C943F030C943F030C943F0318
:100060000C94A5160C943F0300000000003E5B4F6B
:100070005B3E3E6B4F6B3E1C3E7C3E1C183C7E3C08
:10008000181C577D571C1C5E7F5E1C00183C180016
:10009000FFE7C3E7FF0018241800FFE7DBE7FF30A6
:1000A000483A060E2629792926407F050507407F14
:1000B00005253F5A3CE73C5A7F3E1C1C08081C1C87
:1000C0003E7F14227F22145F5F005F5F06097F017D
:1000D0007F006689956A606060606094A2FFA29468
:1000E00008047E040810207E201008082A1C080836
:1000F0001C2A08081E101010100C1E0C1E0C303884
:100100003E3830060E3E0E06000000000000005F84
:1001100000000007000700147F147F14242A7F2AA0
:100120001223130864623649562050000807030062
:10013000001C2241000041221C002A1C7F1C2A08AE
:10014000083E080800807030000808080808000011
:1001500060600020100804023E5149453E00427F85
:10016000400072494949462141494D331814127FD4
:100170001027454545393C4A494931412111090774
:100180003649494936464949291E000014000000F5
:1001900040340000000814224114141414140041C7
:1001A00022140802015909063E415D594E7C121184
:1001B000127C7F494949363E414141227F414141BC
:1001C0003E7F494949417F090909013E4141517337
:1001D0007F0808087F00417F41002040413F017FA8
:1001E000081422417F404040407F021C027F7F0470
:1001F00008107F3E4141413E7F090909063E4151B9
:10020000215E7F09192946264949493203017F01A8
:10021000033F4040403F1F2040201F3F4038403FA9
:10022000631408146303047804036159494D4300BF
:100230007F4141410204081020004141417F0402F6
:10024000010204404040404000030708002054548D
:1002500078407F284444383844444428384444286B
:100260007F385454541800087E090218A4A49C78BE
:100270007F0804047800447D40002040403D007F1A
:100280001028440000417F40007C047804787C08FA
:100290000404783844444438FC18242418182424CE
:1002A00018FC7C08040408485454542404043F44B3
:1002B000243C4040207C1C2040201C3C4030403CE2
:1002C00044281028444C9090907C4464544C440042
:1002D00008364100000077000000413608000201A6
:1002E0000204023C2623263C1EA1A161123A404092
:1002F000207A38545455592155557941225454780F
:1003000042215554784020545579400C1E527212A7
:100310003955555559395454545939555454580030
:1003200000457C410002457D420001457C407D1234
:1003300011127DF0282528F07C5455450020545496
:100340007C547C0A097F4932494949323A44444441
:100350003A324A4848303A4141217A3A424020787C
:10036000009DA0A07D3D4242423D3D4040403D3C7D
:1003700024FF2424487E4943662B2FFC2F2BFF09A2
:1003800029F620C0887E0903205454794100004496
:100390007D413048484A32384040227A007A0A0A81
:1003A000727D0D19317D2629292F282629292926F4
:1003B00030484D4020380808080808080808382F39
:1003C00010C8ACBA2F102834FA00007B00000814C3
:1003D0002A142222142A14085500550055AA55AA99
:1003E00055AAFF55FF55FF000000FF00101010FF39
:1003F00000141414FF001010FF00FF1010F010F094
:10040000141414FC001414F700FF0000FF00FF1484
:1004100014F404FC141417101F10101F101F1414D0
:10042000141F00101010F0000000001F101010101A
:100430001F10101010F010000000FF10101010100E
:1004400010101010FF10000000FF140000FF00FF4C
:1004500000001F10170000FC04F4141417101714E8
:1004600014F404F40000FF00F7141414141414140A
:10047000F700F7141414171410101F101F1414147D
:10048000F4141010F010F000001F101F0000001FE7
:1004900014000000FC140000F010F01010FF10FF1A
:1004A000141414FF141010101F00000000F010FFAF
:1004B000FFFFFFFFF0F0F0F0F0FFFFFF0000000093
:1004C00000FFFF0F0F0F0F0F3844443844FC4A4A17
:1004D0004A347E02020606027E027E0263554941CC
:1004E000633844443C04407E201E2006027E020203
:1004F00099A5E7A5991C2A492A1C4C7201724C3017
:100500004A4D4D303048784830BC625A463D3E49ED
:100510004949007E0101017E2A2A2A2A2A44445F91
:10052000444440514A444040444A51400000FF0185
:1005300003E080FF000008086B6B08361236243693
:10054000060F090F060000181800000010100030F8
:1005500040FF0101001F01011E00191D1712003C80
:100560003C3C3C000000000004E010021C07123775
:1005700032292D29252B3900010310E110031D0715
:10058000062E2C292D2E2E373F0000021013800A34
:10059000298064022A040000004F2B040000009F01
:1005A0000F0180961180FFB103012C2DB203012CA5
:1005B0002DB306012C2D012C2DB40107C003A2027E
:1005C00084C101C5C2020A00C3028A2AC4028AEE9B
:1005D000C5010E20003601C83A01050000000024C4
:1005E0000027002A000000000800020100000304A8
:1005F0000700000000000000000102040810204075
:1006000080010204081020010204081020000000EC
:1006100000250028002B0004040404040404040240
:10062000020202020203030303030300C0171124A2
:100630001FBECFEFD8E0DEBFCDBF23E0A0E6B2E023
:1006400001C01D92AB3DB207E1F712E0A0E0B1E0BE
:10065000E2E3F3E402C005900D92A036B107D9F7AA
:1006600013E0C7E1D3E004C02197FE010E94911F6F
:10067000C631D107C9F70E94ED170C9497210C944D
:100680000000A4EEB2E014961C921E92139720E88C
:1006900030E016963C932E93159780EA90E01896DA
:1006A0009C938E9317971A963C932E9319971C96AA
:1006B0009C938E931B9757961C9257971E961C924D
:1006C0001E921D9750961C921E921F9781E056967F
:1006D0008C93569755968C9355972FEF3FEF5496E2
:1006E0003C932E93539752963C932E935197589642
:1006F0008C93589759961C9259975B961C921E9210
:100700005A978AE391E012969C938E931197D6960E
:100710001C92D69785E0D7968C93D79786E0D8968B
:100720008C93D89787E0D9968C93D997DB961C92B7
:100730001E92DA97DD961C921E92DC97DE961C9232
:10074000DE97DF961C92DF97109224031092250308
:10075000109226031092270383EE92E091969C93C9
:100760008E939097EEE1F6E0E491F0E0EE0FFF1F3C
:10077000E35FF94F859194915F969C938E935E977A
:10078000E0E0F6E08491D4968C93D497EDE1F6E026
:10079000E491F0E0EE0FFF1FE35FF94F25913491F4
:1007A0005D963C932E935C97EFEFF5E0E491D29643
:1007B000EC93D297E095D396EC93D397E82FE095FE
:1007C000D596EC93089590E0FC01EB51FA4F2491FB
:1007D000FC01E750FA4F3491FC01E95EF94FE491D6
:1007E000EE23C9F0222339F0233001F1A8F421309F
:1007F00019F1223029F1F0E0EE0FFF1FE35FF94F0E
:10080000A591B4918FB7F894EC91611126C0309501
:100810003E233C938FBF08952730A9F02830C9F0BC
:10082000243049F7809180008F7D03C08091800043
:100830008F7780938000DFCF84B58F7784BDDBCF47
:1008400084B58F7DFBCF8091B0008F778093B0000F
:10085000D2CF8091B0008F7DF9CF3E2BDACFCF93EE
:10086000DF9390E0FC01E750FA4F2491895E994FA5
:10087000FC0184918823D1F090E0880F991FFC013E
:10088000E552FA4FA591B491FC01E35FF94FC59190
:10089000D49161110EC09FB7F8948C91E22FE0952E
:1008A0008E238C932881E223E8839FBFDF91CF9131
:1008B00008958FB7F894EC91E22BEC938FBFF6CFAD
:1008C0008E3008F08E508770806480937C00809119
:1008D0007A00806480937A0080917A0086FDFCCF54
:1008E000809178009091790008953FB7F8948091B5
:1008F000DF029091E002A091E102B091E20226B500
:10090000A89B05C02F3F19F00196A11DB11D3FBF47
:10091000BA2FA92F982F8827BC01CD01620F711D16
:10092000811D911D42E0660F771F881F991F4A9510
:10093000D1F708958F929F92AF92BF92CF92DF929C
:10094000EF92FF926B017C010E9475044B015C01E8
:10095000C114D104E104F104B9F00E9475046819CE
:1009600079098A099B09683E73408105910580F3E6
:1009700021E0C21AD108E108F10888EE880E83E070
:10098000981EA11CB11CE4CFFF90EF90DF90CF9098
:10099000BF90AF909F908F9008952FB7F89460917B
:1009A000DB027091DC028091DD029091DE022FBFAC
:1009B000089508950895AF92BF92CF92DF92EF927B
:1009C000FF920F931F93CF93DF936C017B018B01F9
:1009D000040F151FEB015E01AE18BF08C017D10749
:1009E00059F06991D601ED91FC910190F081E02DD3
:1009F000C6010995892B79F7C501DF91CF911F9128
:100A00000F91FF90EF90DF90CF90BF90AF9008953F
:100A1000FC01538D448D252F30E0842F90E0821B04
:100A2000930B541710F0CF96089501970895FC0189
:100A3000918D828D981761F0A28DAE0FBF2FB11DE1
:100A40005D968C91928D9F5F9F73928F90E0089539
:100A50008FEF9FEF08950F931F930E94CD04609333
:100A600042037093430380934403909345038AE3C6
:100A700093E00E94170597FF1DC00E94CD040091CE
:100A80004203109143032091440330914503601BBE
:100A9000710B820B930B00913E0310913F03209149
:100AA0004003309141036017710782079307F8F202
:100AB0008FEF9FEF1F910F910895FC01918D828D13
:100AC000981731F0828DE80FF11D858D90E0089523
:100AD0008FEF9FEF0895FC01918D228D892F90E07B
:100AE000805C9F4F821B91098F73992708958AE339
:100AF00093E00E946B0521E0892B09F420E0822F0E
:100B0000089580E090E0892B29F00E9477058111FB
:100B10000C9400000895FC01A48DA80FB92FB11DFD
:100B2000A35ABF4F2C91848D90E001968F73992723
:100B3000848FA689B7892C93A089B1898C91837001
:100B400080648C93938D848D981306C00288F389FA
:100B5000E02D80818F7D80830895EF92FF920F9327
:100B60001F93CF93DF93EC0181E0888F9B8D8C8D59
:100B700098131AC0E889F989808185FF15C09FB74D
:100B8000F894EE89FF896083E889F9898081837010
:100B9000806480839FBF81E090E0DF91CF911F91BF
:100BA0000F91FF90EF900895F62E0B8D10E00F5FE0
:100BB0001F4F0F731127E02E8C8D8E110CC00FB6B6
:100BC00007FCFACFE889F989808185FFF5CFCE014E
:100BD0000E948B05F1CFEB8DEC0FFD2FF11DE35A39
:100BE000FF4FF0829FB7F8940B8FEA89FB898081D1
:100BF0008062CFCFCF93DF93EC01888D8823B9F04B
:100C0000AA89BB89E889F9898C9185FD03C0808117
:100C100086FD0DC00FB607FCF7CF8C9185FFF2CF94
:100C2000808185FFEDCFCE010E948B05E9CFDF915A
:100C3000CF91089520918702260F3327331F213249
:100C40003105ECF42091AB02FC0190E080E024300F
:100C500069F082E00895A09187022191AC01495981
:100C60005D4FA40FB52FB11D2C930196861798F3F5
:100C700080918702680F6093870280E0089581E089
:100C800008958FEF9FEF08958FEF9FEF0895809164
:100C9000600290E09195819591090895CF93DF933B
:100CA000CB01EA01642F0E941A06CE01DF91CF9199
:100CB0000895CF93DF931F92CDB7DEB7698361E0CC
:100CC000CE0101960E941A0681E090E00F90DF911C
:100CD000CF910895FC01A5A1B6A18C9192A589237D
:100CE0008C93A5A1B6A18C9191A5892B8C93089585
:100CF000DC019396ED91FC919497908198968C915C
:100D0000892380830895DC019396ED91FC9194975B
:100D1000908197968C91892B80830895DC01919620
:100D2000ED91FC919297908196968C918923808386
:100D30000895DC019196ED91FC91929790819596A2
:100D40008C91892B80830895CF92DF92EF92FF924E
:100D50001F93CF93DF93EC016A017B018DA9811171
:100D600023C08F2D9927AA27BB278EBD0DB407FE60
:100D7000FDCFC701AA27BB278EBD0DB407FEFDCF4F
:100D8000BB27AF2D9E2D8D2D8EBD0DB407FEFDCF43
:100D9000CEBC0DB407FEFDCFDF91CF911F91FF9028
:100DA000EF90DF90CF9008958130B1F410E2CE0142
:100DB000F7FE0FC00E949906CE010E948306CE0165
:100DC0000E947806CC0CDD1CEE1CFF1C115079F73C
:100DD000E3CF0E948E06F0CFEF8DF8A18F2D9927DB
:100DE000AA27BB278083CE010E946A06EF8DF8A157
:100DF000C701AA27BB278083CE010E946A06EF8D18
:100E0000F8A1BB27AF2D9E2D8D2D8083CE010E9492
:100E10006A06EF8DF8A1C082CE01DF91CF911F91BC
:100E2000FF90EF90DF90CF900C946A06FF920F93A3
:100E30001F93CF93DF93EC018B018DA981110EC01D
:100E40001EBD0DB407FEFDCF0EBD0DB407FEFDCFD8
:100E5000DF91CF911F910F91FF9008958130B1F4F0
:100E600090E1F92ECE0117FF0EC00E949906CE0127
:100E70000E948306CE010E947806000F111FFA948B
:100E8000F110F0CFE5CF0E948E06F1CFEF8DF8A1E3
:100E90001083CE010E946A06EF8DF8A10083CE0177
:100EA000DF91CF911F910F91FF900C946A060F93E1
:100EB0001F93CF93DF93EC01162F8DA9811109C0E9
:100EC0006EBD0DB407FEFDCFDF91CF911F910F9145
:100ED0000895813099F408E0CE0117FF0CC00E94FC
:100EE0009906CE010E948306110FCE010E9478065A
:100EF000015091F7E9CF0E948E06F3CFEF8DF8A154
:100F00006083CE01DF91CF911F910F910C946A06FF
:100F1000CF93DF93EC01ED8DFE8D80819CA9892319
:100F20008083CE010E945707ED8DFE8D80819BA9A5
:100F3000892B8083DF91CF9108958F929F92AF92FA
:100F4000BF92CF92DF92EF92FF920F931F93CF93B6
:100F5000DF93EC0189AD9AAD680F791F8BAD9CAD25
:100F6000480F591F21503109260F371F4901B12C55
:100F7000A12CCB01B0E0A0E0DC0199278827882ACA
:100F8000992AAA2ABB2A680181E0C81AD108C40E8E
:100F9000D51EF12CE12C70E060E0BA015527442702
:100FA000C42AD52AE62AF72A6AE2CE010E948807D7
:100FB000B501A401CE010E94A4066BE2CE010E94FD
:100FC0008807B701A601CE010E94A4066CE2CE01FB
:100FD000DF91CF911F910F91FF90EF90DF90CF9015
:100FE000BF90AF909F908F900C948807FC0185A9CB
:100FF000811104C091A182A19CBD8DBD08951F9354
:10100000CF93DF93EC01162FE881F9810284F385F9
:10101000E02D0995112371F06DADCE010E94880776
:10102000E881F9810688F789E02DCE01DF91CF9123
:101030001F9109946EADF1CFAF92BF92CF92DF9224
:10104000EF92FF920F931F93CF93DF93EC0177FD05
:1010500038C088859985681779079CF557FD31C098
:101060008A859B854817590764F569017A015B01F8
:10107000E881F9810284F385E02DCE010995E881AC
:10108000F98102A4F3A5E02D01E010E021E030E0B9
:10109000A701B501CE010995B601CE010E94160740
:1010A000E881F9810688F789E02DCE01DF91CF91A3
:1010B0001F910F91FF90EF90DF90CF90BF90AF9076
:1010C0000994DF91CF911F910F91FF90EF90DF90E6
:1010D000CF90BF90AF9008958F929F92AF92BF92A2
:1010E000CF92DF92EF92FF920F931F93CF93DF93F4
:1010F000EC0149015701E881F98102A4F3A5E02D33
:1011000009959401D8010E94821F6B017C01C114D2
:10111000D104E104F10409F47DC08DA9811115C049
:1011200081E0C81AD108E108F1088FEFC816D80687
:10113000E806F80609F46EC0BEBC0DB407FEFDCF8C
:10114000AEBC0DB407FEFDCFEBCF813099F581E049
:10115000C81AD108E108F1088FEFC816D806E806CA
:10116000F80609F457C00B2D18E0CE0107FF1CC08C
:101170000E949906CE010E948306CE010E94780645
:10118000000F115091F70A2D18E0CE0107FF0FC094
:101190000E949906CE010E948306CE010E94780625
:1011A000000F115091F7D3CF0E948E06E3CF0E941B
:1011B0008E06F0CFBA1016C0CC0CDD1CEE1CFF1C46
:1011C000EF8DF8A1B08281E0C81AD108E108F108DA
:1011D0008FEFC816D806E806F806E1F0CE010E94A7
:1011E0006A06F1CF81E0C81AD108E108F1088FEF53
:1011F000C816D806E806F80669F0EF8DF8A1B082A7
:10120000CE010E946A06EF8DF8A1A082CE010E9455
:101210006A06E8CFDF91CF911F910F91FF90EF9079
:10122000DF90CF90BF90AF909F908F9008958F9256
:101230009F92AF92BF92CF92DF92EF92FF920F9365
:101240001F93CF93DF935C014B016A01E90177FDA6
:1012500052C0DC0118968D919C91681779070CF0AB
:101260004AC0209709F447C037FF07C0C90101965B
:10127000C80ED91ED195C195D109F50182859385F6
:10128000C816D906C4F5A6014C0F5D1F9A0121505E
:10129000310937FD30C0D7FE03C0EA01D12CC12C83
:1012A000281739071CF0EC01CC19DD09D501ED91A7
:1012B000FC910284F385E02DC501099578018E012A
:1012C00021E030E0A601B401C5010E946C08D501FF
:1012D000ED91FC910688F789E02DC501DF91CF9152
:1012E0001F910F91FF90EF90DF90CF90BF90AF9044
:1012F0009F908F900994DF91CF911F910F91FF9054
:10130000EF90DF90CF90BF90AF909F908F90089517
:101310008F929F92AF92BF92CF92DF92EF92FF9205
:101320000F931F93CF93DF935C016B014A01E90197
:1013300057FD52C0DC011A968D919C9148175907B0
:101340000CF04AC0209709F447C037FF07C0C90115
:101350000196C80ED91ED195C195D109F501808598
:101360009185C816D906C4F5A6014C0F5D1F9A01D8
:101370002150310937FD30C0D7FE03C0EA01D12C1E
:10138000C12C281739071CF0EC01CC19DD09D50157
:10139000ED91FC910284F385E02DC501099578015A
:1013A00001E010E09E01A401B601C5010E946C0895
:1013B000D501ED91FC910688F789E02DC501DF91FB
:1013C000CF911F910F91FF90EF90DF90CF90BF9042
:1013D000AF909F908F900994DF91CF911F910F91C3
:1013E000FF90EF90DF90CF90BF90AF909F908F9045
:1013F00008958F929F92AF92BF92CF92DF92EF9219
:10140000FF920F931F93CF93DF934C016B015A010F
:10141000E901209709F46CC00115110509F468C0B1
:1014200037FF07C0C9010196C80ED91ED195C195D5
:10143000D109F401A085B185CA16DB060CF058C0AD
:1014400017FF07C0C8010196A80EB91E1195019596
:101450001109F40182859385A816B9060CF048C0DD
:10146000F601EC0FFD1FAF014150510957FD40C07F
:10147000B501600F711F9B012150310937FD38C044
:10148000D7FE03C0EF01D12CC12CB7FE03C08B01E6
:10149000B12CA12C4A175B071CF0ED01CC19DD091A
:1014A000281739071CF08C010A191B09D401ED918A
:1014B000FC910284F385E02DC40109959E01A501EC
:1014C000B601C4010E946C08D401ED91FC9106881C
:1014D000F789E02DC401DF91CF911F910F91FF900B
:1014E000EF90DF90CF90BF90AF909F908F90099436
:1014F000DF91CF911F910F91FF90EF90DF90CF90F0
:10150000BF90AF909F908F900895EF92FF920F93AE
:101510001F93CF93DF9377FD32C0DC011896ED91D6
:10152000FC916E177F075CF52115310541F137FFFE
:1015300007C0F90131964E0F5F1F31952195310992
:10154000DC011A96ED91FC914E175F07C4F4EA0195
:10155000C20FD31FDE011197B7FD11C057FF03C0A3
:101560009E0150E040E0AE17BF071CF09F01241B16
:10157000350B7801890121E030E00E946C08DF9191
:10158000CF911F910F91FF90EF900895EF92FF92EE
:101590000F931F93CF93DF9357FD31C0DC011A9651
:1015A000ED91FC914E175F0754F52115310539F186
:1015B00037FF07C0F90131966E0F7F1F31952195D6
:1015C0003109DC011896ED91FC916E177F07BCF490
:1015D000EB01C20FD31FDE011197B7FD10C077FFDB
:1015E00003C09E0170E060E0AE17BF071CF09F01D2
:1015F000261B370B780101E010E00E946C08DF9198
:10160000CF911F910F91FF90EF9008958F929F922D
:10161000AF92BF92CF92DF92EF92FF920F931F9300
:10162000CF93DF9347012115310509F44BC0011514
:10163000110509F447C037FF07C0F90131966E0F55
:101640007F1F319521953109DC011896AD90BC9032
:101650006A157B05BCF517FF07C0F80131964E0FE0
:101660005F1F119501951109DC011A96ED91FC910E
:101670004E175F073CF56B01C20ED31EE6012197A2
:10168000D7FD20C07A01E00EF11ED7011197B7FDFA
:1016900019C077FF03C0960170E060E057FF03C0F8
:1016A000870150E040E0CA15DB051CF09501261BC0
:1016B000370BAE17BF071CF08F01041B150B74010D
:1016C0000E946C08DF91CF911F910F91FF90EF90D6
:1016D000DF90CF90BF90AF909F908F900895EF9242
:1016E000FF920F931F93CF93DF93EC0177FD22C0FE
:1016F0008885998568177907ECF457FD1BC08A85A2
:101700009B8548175907B4F47901E881F98102A44F
:10171000F3A5E02D01E010E021E030E0CE010995D5
:10172000B701CE01DF91CF911F910F91FF90EF9004
:101730000C941607DF91CF911F910F91FF90EF90BE
:101740000895CF93DF93EC010E94F6078FA987FDE0
:1017500006C0EB8DFC8D80819AA989238083DF915F
:10176000CF91089508958F929F92AF92BF92CF929A
:10177000DF92EF92FF920F931F93CF93DF93EC01D1
:10178000CB010196FB01F490FA94FFEFFF1609F4E8
:1017900067C0FC0114916C01F2E0CF0ED11CFC017A
:1017A0003196E4900E2D0F77CE010E94F6078FA997
:1017B00087FD06C0EB8DFC8D80819AA989238083EB
:1017C000ED8DFE8D80819CA989238083612FCE01C0
:1017D0000E945707ED8DFE8D80819BA9892B808308
:1017E000F601912C812C10E080169106D4F48DA97D
:1017F0005F01823071F488A9882359F06191719159
:101800005F01CE010E9416078FEF881A980AF50132
:10181000EBCF2FEFA21AB20A6491CE010E945707B4
:10182000F3CF8FA987FD06C0EB8DFC8D808199A930
:10183000892B8083C601800F911FE7FEA5CF8C0105
:101840000F5F1F4FFC01649170E06F3F710511F451
:1018500064EF71E090E080E00E949A04C80194CFA8
:10186000DF91CF911F910F91FF90EF90DF90CF907C
:10187000BF90AF909F908F9008950F931F93CF9339
:10188000DF93EC018B010E94F6078FA987FD06C04C
:10189000EB8DFC8D80819AA989238083ED8DFE8D4F
:1018A00080819CA98923808366E3CE010E9457072B
:1018B000ED8DFE8D80819BA9892B80838DA9F801F8
:1018C000823091F06081CE010E9457078FA987FD79
:1018D00006C0EB8DFC8D808199A9892B8083DF91D7
:1018E000CF911F910F91089588A9882359F36081A2
:1018F0007181CE010E941607E9CFCF93DF931F922B
:10190000CDB7DEB7FC0119826370668BDC01AD5B7D
:10191000BF4F2C9130E011968C9190E0623031F005
:101920006330C9F0613081F040EC498332AF21AFC0
:1019300094AF83AFBE016F5F7F4FCF010E943D0C1C
:101940000F90DF91CF91089540EA498334AF23AFE0
:1019500092AF81AFEFCF40E6F8CFCF93DF931F92E6
:10196000CDB7DEB7FC0119826370668BDC01AA5B20
:10197000BF4F8C91982F9B7FAF014C5B5F4F913095
:1019800031F493E0623008F091E0DA019C939F011A
:101990002D5B3F4F623009F44CC0633009F45BC0EB
:1019A000613069F1823021F098EC843009F046C052
:1019B00090EC99838130D1F480E890E0938782871E
:1019C00091878087D9018C9190E092AF81AFDA0145
:1019D0008C9190E094AF83AFBE016F5F7F4FCF01DA
:1019E0000E943D0C0F90DF91CF910895843051F506
:1019F00080EA90E09387828780E590E0E1CF8230B3
:101A000019F098EA843071F590EA99838130B1F544
:101A100080E890E09187808793878287D9018C91B5
:101A200090E094AF83AFDA018C9190E092AF81AFF8
:101A3000D3CF823049F08430D9F298E09983813055
:101A400009F4BACF8630A1F280EA90E093878287CA
:101A500080E890E0B5CF823019F098E6843011F438
:101A600090E6D3CF9983813099F2863051F480EAA1
:101A700090E09187808780E590E0CECF8430B9F305
:101A8000F4CF80EA90E09187808780E890E0C4CF2F
:101A9000FC0187A987FD06C0A38DB48D9C9181A907
:101AA000892B8C9308950895FC016370668B848163
:101AB000958126813781613039F0633029F0918733
:101AC000808733872287089531872087938782878D
:101AD00008952F923F924F925F926F927F928F92D2
:101AE0009F92AF92BF92CF92DF92EF92FF920F93AD
:101AF0001F93CF93DF93CDB7DEB76A970FB6F894F5
:101B0000DEBF0FBECDBF9A8F898F7A8369834A016A
:101B1000D22E18870F833701BC2CDC0159962D91EA
:101B20003C915A972115310509F015C118968D91F0
:101B30009C911997681779070CF0D7C11A968D9167
:101B40009C91481759070CF0D0C14C2C512CB6E091
:101B5000CB9E600D711D11247C876B8716161706AE
:101B60000CF0C3C1EA2DF0E0FA87E98793E0EE0FAD
:101B7000FF1F9A95E1F7F88BEF87CF01840F951F30
:101B8000181619060CF0B1C1A98DBA8D58968C9112
:101B9000811104C0BFEABD1508F4D394A98DBA8D94
:101BA000ED91FC9111970284F385E02DCD0109950B
:101BB000B5E0DB9EC0011124E981FA81FC83EB834F
:101BC000312C212C9C0128593F4F388F2F8B4A2DC7
:101BD00050E05E8B4D8BEF89F88DE20DF31D449143
:101BE0009E828D82D12CC12C69817A81620D731DF8
:101BF0007A8B698B842F90E09C8B8B8BE98DFA8D8F
:101C0000A081B18140FF82C0F1E0BF126FC0AF126E
:101C10006DC01C96ED91FC912F813885A4014C0D6F
:101C20005D1D69897A89898D9A8D0995EB89FC8971
:101C3000F595E7954E2F5FEFC51AD50A6D817E8128
:101C40008D899E89680F791F7E836D8398E0C91600
:101C5000D10481F6AFEF2A1A3A0AEB81FC81E40D38
:101C6000F51DFC83EB83F5E02F16310409F0B3CFAB
:101C70002F81388526153705B9F0A98DBA8DED91DC
:101C8000FC91B1E0BB1257C0AB1255C069817A819B
:101C90006B5F7F4F0088F189E02D830128E030E001
:101CA000A401898D9A8D0995A98DBA8DED91FC912C
:101CB00011970688F789E02DCD016A960FB6F89442
:101CC000DEBF0FBECDBFDF91CF911F910F91FF906F
:101CD000EF90DF90CF90BF90AF909F908F907F90CC
:101CE0006F905F904F903F902F9009941E96ED91CA
:101CF000FC91EF80F88409851A8592014D815E81FF
:101D00006B817C81898D9A8D099590CF2F81388543
:101D10002615370509F48ACF31E0B31207C0A312A4
:101D200005C01C96ED91FC91930178CF1E96ED9124
:101D3000FC917301E0CF6B857C856419750906847D
:101D4000F785E02D73010F8518899201A401898D13
:101D50009A8D0995A9CFF9013496949132974591BE
:101D60005491D91AB7E0DB9E400D511D1124F901A1
:101D7000259134913C8B2B8BFA0125903490FA01FC
:101D80003296749031963491398B329664903196B4
:101D9000449041E04C1518F04A1508F07FC0662DBC
:101DA000062C000C770B7C836B83842D042C000C99
:101DB000990B9E838D83A98DBA8DED91FC9111971E
:101DC0000284F385E02DCD010995512CD12CC12C35
:101DD000EA2DF0E0FA87E9872B2D30E03C872B874E
:101DE000A401440D511D47FC5A95588F4F8B6981B2
:101DF0007A81660D711D67FC7A957E876D8779897A
:101E0000C71608F051CF2C2D30E04D815E81420F76
:101E1000531FA985BA854A9FC0014B9F900D5A9FB9
:101E2000900D1124FC01E80DF91DF88BEF87852D2D
:101E3000612C4F89588D420F531F5E8B4D8B671459
:101E400008F050C044244394480E877041F4C10107
:101E50000196EB89FC89E20DF31DD4901C01D7FE9D
:101E600019C0A98DBA8DED91FC91662D70E0B1E09D
:101E7000BB1219C0AB1217C02D853E85620F731FB0
:101E80000484F585E02D2F8138854D895E89898D03
:101E90009A8D0995DD0C6394842DD1CF1E821D820D
:101EA0001C821B8288CF4B815C81640F751FAB85C0
:101EB000BC856A9FC0016B9F900D7A9F900D112485
:101EC00069817A81680F791F0684F785E02DEF809C
:101ED000F88409851A859D014F855889898D9A8DC9
:101EE0000995D8CF570CC3948ACF6A960FB6F89449
:101EF000DEBF0FBECDBFDF91CF911F910F91FF903D
:101F0000EF90DF90CF90BF90AF909F908F907F9099
:101F10006F905F904F903F902F9008958F929F9277
:101F2000AF92CF92EF92FF920F931F93CF93DF93D5
:101F3000EC01262F898D9A8D009709F051C06A30E7
:101F4000D1F41D861C868D8948E0849F9001112460
:101F50008E859F85820F931F9F878E8781E090E0FB
:101F6000DF91CF911F910F91FF90EF90CF90AF90A5
:101F70009F908F9008956D3089F3CC88AD888F89BC
:101F80008823C1F08C859D8536E0C39E800D911D10
:101F90001124488559854817590764F44E855F8593
:101FA0001D861C8638E0A39EC0011124840F951F56
:101FB0009F878E87EA88FB88088919894E855F8507
:101FC0006C857D85CE010E94690D2C898C859D854F
:101FD00046E0249F800D911D11249D878C87BECFE4
:101FE0006A3069F41D861C86FC013896E4912D89BF
:101FF0008E859F85E29F800D911D1124ADCF6D30A0
:1020000009F4ACCFFC0134963491631708F4A6CFE1
:102010003296E491E61708F4A1CFFC013296859040
:102020009490462F431B342F47E0349F800C911C23
:102030001124F401329634913196E4913323A9F1BD
:10204000EE2399F1CC88F4013596E491AD884F895F
:10205000442301F10E2E000CFF0BE30FF11DCE9E69
:10206000A001CF9E500D11246C857D85460F571F12
:1020700068857985641775076CF44E855F851D86C4
:102080001C86FC013896E491AE9E400D511D112432
:102090005F874E87EA88FB88088919894E855F85A6
:1020A0006C857D85CE010E94690DF4013496E49122
:1020B0002C898C859D85E29F800D911D11248DCFEB
:1020C0006F927F928F929F92AF92BF92CF92DF9248
:1020D000EF92FF920F931F93CF93DF93EC016B016D
:1020E0005A0139014801E881F9810284F385E02D24
:1020F0000995E881F9810288F389E02D8701930130
:10210000A501B601CE010995A501480D591D415003
:102110005109E881F9810288F389E02D9301B60124
:10212000CE010995E881F9810088F189E02D9401BB
:10213000A501B601CE010995C60CD71CB6016150A8
:102140007109E881F9810088F189E02D9401A501E8
:10215000CE010995E881F9810688F789E02DCE0145
:10216000DF91CF911F910F91FF90EF90DF90CF9073
:10217000BF90AF909F908F907F906F9009946F92D7
:102180007F928F929F92AF92BF92CF92DF92EF9207
:10219000FF920F931F93CF93DF935C01EB016A01D2
:1021A000490138018701DC01ED91FC916217730749
:1021B00019F5641675062CF0962D872D3A01C92E57
:1021C000D82E9601261937092F5F3F4F048CF58DC5
:1021D000E02DA301BE01C5010995DF91CF911F91AB
:1021E0000F91FF90EF90DF90CF90BF90AF909F90B6
:1021F0008F907F906F9008954615570591F426179C
:10220000370724F0892D4B01C22FD82F9E012819A2
:1022100039092F5F3F4F068CF78DE02DA601B401E1
:10222000DACF0284F385E02D0995D501ED91FC917B
:102230000488F589E02D83019401A601BE01C50142
:102240000995D501ED91FC910688F789E02DC5012E
:10225000DF91CF911F910F91FF90EF90DF90CF9082
:10226000BF90AF909F908F907F906F900994EF9266
:10227000FF920F931F93DC011A960D911C911B97EF
:1022800018962D913C911997ED91FC9100A0F1A128
:10229000E02D7B0150E040E070E060E009951F9187
:1022A0000F91FF90EF9008954F925F926F927F92FF
:1022B0008F929F92AF92BF92CF92DF92EF92FF9256
:1022C0000F931F93CF93DF936C012B015A013901B8
:1022D0004801DC01ED91FC910284F385E02D099524
:1022E000E201640C751CD601ED91FC91C615D70571
:1022F0005CF40088F189E02D87019401A501BE01FD
:10230000C60109952196EFCF0688F789E02DC60111
:10231000DF91CF911F910F91FF90EF90DF90CF90C1
:10232000BF90AF909F908F907F906F905F904F90F5
:1023300009948F929F92AF92BF92CF92DF92EF92C9
:10234000FF920F931F93CF93DF93EC015B014A0140
:102350006901E881F9810284F385E02D09959501F1
:102360002C0D3D1D21503109E881F9810488F58942
:10237000E02D78018401A401B501CE010995E88121
:10238000F9810688F789E02DCE01DF91CF911F9169
:102390000F91FF90EF90DF90CF90BF90AF909F9004
:1023A0008F9009948F929F92AF92BF92CF92DF92BB
:1023B000EF92FF920F931F93CF93DF93EC015B019A
:1023C0004A0169017801E881F9810284F385E02DF1
:1023D0000995C80CD91C860101501109E881F981C1
:1023E0000488F589E02D9501A401B501CE01099578
:1023F000E881F9810688F789E02DCE01DF91CF9140
:102400001F910F91FF90EF90DF90CF90BF90AF9012
:102410009F908F900994EF92FF920F931F93DC018E
:10242000ED91FC9100A0F1A1E02D09951F910F9174
:10243000FF90EF9008950F931F93DC01ED91FC91B5
:10244000068CF78DE02D09951F910F9108950F933C
:102450001F93DC01ED91FC91048CF58DE02D099525
:102460001F910F910895DC01ED91FC910084F1859D
:10247000E02D09942F923F924F925F926F927F923C
:102480008F929F92AF92BF92CF92DF92EF92FF9284
:102490000F931F93CF93DF9300D000D000D0CDB720
:1024A000DEB73C016A013E832D83FC82EB8258013A
:1024B000A41AB50AB7FE03C0B194A194B1088D80E7
:1024C0009E80861A970A97FE03C091948194910882
:1024D0008A149B045CF0902F812F0D811E819D83B7
:1024E0008E839C2D8D2D6B01692F782F0C151D056A
:1024F0005CF09D818E817E836D83692F782F902F74
:10250000812F8601C92ED82E1601201A310A2B01DF
:102510002D813E81421A530A57FE03C051944194C3
:102520005108710137FE03C03FEFE31AF30AF59437
:10253000E7948D819E81861797075CF5A1E0B0E056
:10254000BA83A983C016D1064CF1D301ED91FC9159
:102550000484F585E02D2B813C81A8016D817E816D
:102560008A149B041CF04D815E81B801C30109955A
:10257000E418F508F7FE0AC02D813E8189819A8111
:10258000280F391F3E832D83E20CF31C0F5F1F4F72
:10259000D9CF2FEF3FEF3A832983D4CF26960FB6BA
:1025A000F894DEBF0FBECDBFDF91CF911F910F9189
:1025B000FF90EF90DF90CF90BF90AF909F908F9063
:1025C0007F906F905F904F903F902F900895089567
:1025D00090E080E00895FB0101900020E9F7319739
:1025E000AF01461B570BDC01ED91FC910280F3819A
:1025F000E02D09948F929F92AF92BF92EF92FF923B
:102600000F931F93CF93DF93CDB7DEB7A1970FB68C
:10261000F894DEBF0FBECDBF7C01FA01CB0119A239
:10262000223008F42AE08E010F5D1F4F822E912C7C
:10263000B12CA12CBF01A50194010E94601FF901DA
:10264000CA016A300CF5605DD8016E938D01232BB1
:10265000242B252B79F790E080E0109721F0BD0125
:10266000C7010E94EB12A1960FB6F894DEBF0FBE11
:10267000CDBFDF91CF911F910F91FF90EF90BF9051
:10268000AF909F908F900895695CDECF0F931F935A
:10269000CF93DF938C01D0E0C0E06115710519F094
:1026A0000E94EB12EC0168E771E0C8010E94EB1296
:1026B0008C0F9D1FDF91CF911F910F910895611590
:1026C000710511F00C94EB1290E080E008952F92C8
:1026D0003F924F925F926F927F928F929F92AF92B2
:1026E000BF92CF92DF92EF92FF921F93CF93DF932F
:1026F000EC016A017B01722EAB019601CB01B601A0
:102700000E945B1F6BE771E0811126C046015701F3
:10271000E894B7F82FEF3FEF4FE75FE7C501B4014B
:102720000E945B1F81110CC02FEF3FEF4FE75FE767
:10273000C501B4010E94D41C6FE771E0181664F063
:102740002FEF3FEF4FE75FE4C701B6010E94561F2E
:102750001816B4F463E871E0CE01DF91CF911F91B8
:10276000FF90EF90DF90CF90BF90AF909F908F90B1
:102770007F906F905F904F903F902F900C94EB1252
:102780002FEF3FEF4FE75FECC701B6010E94D41C6B
:1027900087FDE0CF20E030E0A901C701B6010E942B
:1027A000D41C312C212C87FF0DC0E881F9810190C8
:1027B000F081E02D6DE2CE0109951C01F7FAF0944D
:1027C000F7F8F09410E060E070E080E09FE37116AD
:1027D00041F020E030E040E251E40E94AE1E1F5F75
:1027E000F6CFA70196010E94421E2B013C010E94D8
:1027F000271F4B015C012AE0BC01A401CE010E940D
:10280000FA127C01E20CF31C1123E1F1C501B401C1
:102810000E94D91C9B01AC01C301B2010E94411E60
:102820004B015C01E881F9810190F081E02D6EE2BD
:10283000CE010995E80EF91E115020F120E030E09C
:1028400040E251E4C501B4010E943A1D2B013C0154
:102850000E94271F4B01B12CA12C2AE0B501A40135
:10286000CE010E94FA12E80EF91EC501B4010E94C1
:10287000D91C9B01AC01C301B2010E94411E4B0156
:102880005C01DACFC701DF91CF911F91FF90EF90EC
:10289000DF90CF90BF90AF909F908F907F906F9080
:1028A0005F904F903F902F9008950E9479210F9351
:1028B0001F93CF93DF93EC0188819981009759F0A2
:1028C0002A813B812617370730F081E0DF91CF91D5
:1028D0001F910F9108958B016F5F7F4F0E94BC2065
:1028E000009759F0998388831B830A832C813D814B
:1028F000232B59F7FC011082E8CF80E0E7CFCF927D
:10290000DF92EF92FF920F931F93CF93DF93EC012F
:102910006A017B01C114D104E104F10439F4C12C32
:1029200048E4D42E48EEE42EFF24F394FE01FF96F3
:10293000C082D182E282F38281E28DAF80E28EAFEB
:10294000369610818FA987FD07C061E00E942F0491
:1029500061E08FA90E94E30361E088AD0E942F042B
:1029600061E088AD0E94E3038DA9811182C040E03F
:1029700052E16AE770E0C416D506E606F70640F4B1
:1029800076956795579547958F5F8630A1F787E0D5
:10299000212F2C702065982F9695922B99A38095C6
:1029A00081708AA3812F90E0B0E0A0E08BA39CA36C
:1029B000ADA3BEA31FB7F8948091D102811127C0A7
:1029C000E1E2F6E08491E3E0F6E09491E82FF0E0B4
:1029D000EE0FFF1FE552FA4FA591B491EC91E92358
:1029E00021F461E08AE00E94E30361E08AE00E9452
:1029F0002F048CB580618CBD8CB580648CBD61E08A
:102A00008DE00E942F0461E08BE00E942F048091F2
:102A1000D1028F5F8093D1021FBF8EA987FD75C041
:102A200061E00E942F0461E08EA90E94E30364E646
:102A300070E080E090E00E949A0460E08EA90E941D
:102A4000E30364E670E080E090E00E949A0461E0B5
:102A50008EA90E94E30368EC70E080E090E0DF91D3
:102A6000CF911F910F91FF90EF90DF90CF900C943A
:102A70009A0407E116E0F12C8130B9F461E08AA5EF
:102A80000E942F0460E08AA50E94E30361E08CA508
:102A90000E942F0460E08CA50E94E3038BA587FDB4
:102AA000BCCF60E00E942F04B8CFF8018491E82FDA
:102AB000F0E0EE0FFF1FE35FF94F859194912F8DAA
:102AC00038A12817390741F461E08F2D0E942F04A7
:102AD00060E08F2D0E94E303F3940F5F1F4FF4E13A
:102AE000FF12E3CF61E08EA50E942F0461E08EA566
:102AF0000E94E3038FA587FD90CF61E00E942F0421
:102B000061E08FA50E94E30388CFDF91CF911F91F1
:102B10000F91FF90EF90DF90CF9008951F93CF9388
:102B2000DF9385ED8093BC008091630290916402F5
:102B3000A0916502B09166020796A11DB11D23E028
:102B4000B695A795979587952A95D1F72091BC00C2
:102B500024FD03C01092AB0252C040916302509119
:102B600064026091650270916602452B462B472BEB
:102B700069F30097A105B10541F02AE22A95F1F722
:102B800000C00197A109B109E1CF80916202C1E0C3
:102B9000C0936102882399F1D091B8001091BA00D6
:102BA0008091BC008A7B8093BC0060E082E10E943F
:102BB000E30360E083E10E94E3031092AB02C09361
:102BC000AD021092AC0261E082E10E94E30361E099
:102BD00083E10E94E3038091B9008E7F8093B90066
:102BE0008091B9008D7F8093B90088E48093B8000C
:102BF00085E48093BC001093BA00D093B800DF91B5
:102C0000CF911F9108951F920F920FB60F9211242A
:102C10002F933F938F939F93AF93BF938091DB024A
:102C20009091DC02A091DD02B091DE023091DA02D7
:102C300023E0230F2D3758F50196A11DB11D2093D8
:102C4000DA028093DB029093DC02A093DD02B09362
:102C5000DE028091DF029091E002A091E102B0914A
:102C6000E2020196A11DB11D8093DF029093E00264
:102C7000A093E102B093E202BF91AF919F918F9137
:102C80003F912F910F900FBE0F901F90189526E83F
:102C9000230F0296A11DB11DD2CF1F920F920FB626
:102CA0000F9211242F933F934F935F936F937F93D2
:102CB0008F939F93AF93BF93EF93FF938AE393E038
:102CC0000E948B05FF91EF91BF91AF919F918F91E2
:102CD0007F916F915F914F913F912F910F900FBE18
:102CE0000F901F9018951F920F920FB60F921124FC
:102CF0002F938F939F93EF93FF93E0914A03F0916B
:102D00004B038081E0915003F091510382FD1BC081
:102D10009081809153038F5F8F73209154038217AA
:102D200041F0E0915303F0E0E65CFC4F958F809317
:102D30005303FF91EF919F918F912F910F900FBEB1
:102D40000F901F9018958081F4CF1F920F920FB6AD
:102D50000F9211242F933F934F935F936F937F9321
:102D60008F939F93AF93BF93EF93FF938091B9009D
:102D7000887F803609F44AC0F0F5883209F4A5C08E
:102D800018F5803109F499C0B8F4882309F4F5C026
:102D9000883009F492C0FF91EF91BF91AF919F915C
:102DA0008F917F916F915F914F913F912F910F90F4
:102DB0000FBE0F901F901895883109F486C080329D
:102DC00051F78093AA0214C0803409F49BC040F4E8
:102DD0008033B9F38833F9F68093AA0285ECAEC04C
:102DE000803509F483C0883509F494C0883499F695
:102DF0000E948E15D0CF883909F48AC038F58837FB
:102E000029F050F4883611F0803729F683E080935A
:102E1000AB021092A90255C0883809F479C08039F4
:102E200019F0803809F0B7CF8091A902803208F0FC
:102E30006FC0E091A90281E08E0F8093A90280917A
:102E4000BB00F0E0E757FD4F80833BC0803B39F08B
:102E5000D0F4803A09F477C0883A09F09CCF84E036
:102E60008093AB021092880210928702F0E0E0E0BB
:102E700009958091870281110FC081E080938702BC
:102E80001092670209C0803C09F4A8CF883C09F47D
:102E9000A5CF883B09F07FCFE091880281E08E0FBB
:102EA00080938802F0E0E959FD4F80818093BB0058
:102EB000909188028091870229C08091D0028093EE
:102EC000BB0085EC8093BC0066CF9091CF028091CF
:102ED000CE02981758F5E091CF0281E08E0F8093D3
:102EE000CF02F0E0E255FD4F8081E9CFE091CF02C3
:102EF00081E08E0F8093CF028091BB00F0E0E2551D
:102F0000FD4F80839091CF028091CE029817C8F236
:102F100085E8D8CFE091CF0281E08E0F8093CF0279
:102F20008091BB00F0E0E255FD4F80838091AD02BF
:102F300081115ECF81E08093AC0284EA8093BC0073
:102F40001092AB0228CF85EC8093BC001092AB02AC
:102F50008091A902803230F4E091A902F0E0E757B5
:102F6000FD4F10826091A90270E089E892E0F0E0E4
:102F7000E0E009951092A9020ECF1092AA0238CF74
:102F8000EAE3F3E01382128288EE93E0A0E0B0E07F
:102F900084839583A683B7838AE691E091838083B7
:102FA00085EC90E09587848784EC90E0978786870E
:102FB00080EC90E0918B808B81EC90E0938B828B06
:102FC00082EC90E0958B848B86EC90E0978B868BDF
:102FD000118E128E138E148E0895CF93DF93CDB77A
:102FE000DEB728970FB6F894DEBF0FBECDBF78943A
:102FF00084B5826084BD84B5816084BD85B58260FE
:1030000085BD85B5816085BD80916E0081608093AE
:103010006E00109281008091810082608093810017
:103020008091810081608093810080918000816027
:10303000809380008091B10084608093B100809182
:10304000B00081608093B00080917A0084608093AA
:103050007A0080917A00826080937A0080917A0071
:10306000816080937A0080917A00806880937A00F2
:103070001092C1008091D20281112BC00E944103A5
:10308000109228031092290310922A038AE091E0FB
:103090009093E6028093E50210922C0310922D0388
:1030A00010922E0310922F031092310310923203CC
:1030B00010923303109234031092350310923603AA
:1030C00010923703109238031092390381E08093F5
:1030D000D202E0914A03F0914B0382E08083E091B9
:1030E0004603F09147031082E0914803F0914903B1
:1030F0008FEC808310925203E0914E03F0914F03C6
:1031000086E08083E0914C03F0914D0380818061E3
:103110008083E0914C03F0914D038081886080832F
:10312000E0914C03F0914D03808180688083E091B1
:103130004C03F0914D0380818F7D808340E050E00F
:10314000BA0185EE92E00E947F1460EA75E085EE98
:1031500092E00E94B30B80E590E09093F0028093A0
:10316000EF0280EA90E09093EE028093ED0263E933
:1031700075E085EE92E00E94B30B88E1809328030E
:103180001092290368E675E085EE92E00E94B30B89
:1031900080EC8983BE016F5F7F4F85EE92E00E94D5
:1031A0003D0C84E080932B0360E085EE92E00E946A
:1031B000AD0C61E085EE92E00E94AD0C70E060E045
:1031C00085EE92E00E94371170E060E085EE92E0BB
:1031D0000E9437118FEF9FEF9093F8028093F702D0
:1031E0009093F6028093F50281E08093F902809338
:1031F000FA020AE010E01093F2020093F102109339
:10320000F4020093F30262EF71E085EE92E00E9417
:1032100046131093F2020093F10289E190E090933B
:10322000F4028093F3026CEF71E085EE92E00E946D
:1032300046131093F2020093F1028DE290E0909316
:10324000F4028093F30263E172E085EE92E00E9463
:1032500046131093F2020093F1028CE390E09093F6
:10326000F4028093F3026CE172E085EE92E00E943A
:1032700046131093F2020093F10284E490E09093DD
:10328000F4028093F30268E272E085EE92E00E941D
:1032900046130E94CD0460933603709337038093E6
:1032A00038039093390390EE292E97E0392E8091C0
:1032B000D20281112BC00E94410310922803109268
:1032C000290310922A032AE031E03093E60220938A
:1032D000E50210922C0310922D0310922E031092EF
:1032E0002F03109231031092320310923303109285
:1032F0003403109235031092360310923703109264
:1033000038031092390381E08093D2028AE393E07C
:103310000E946B05892B09F467C01A8219821C82EE
:103320001B821E821D8270E060E0CE0101960E9429
:10333000571429813A8181112EC02115310519F0C8
:10334000C9010E9433201A8219821E821D821C82AA
:103350001B820E942B050D811E8197FD24C08A309F
:10336000910509F18F8318860F5F1F4FB801CE01B9
:1033700001960E945714882361F329813A818D8137
:103380009E81BE01695F7F4F820F931F0E94902133
:103390001E830D83DECF1E821D826AE771E0C901A4
:1033A0000E949021D6CFC980DA80C114D10429F0BF
:1033B00076010115110509F03CC209811A818D8140
:1033C0009E81892B59F068E372E0C8010E94872131
:1033D000892B09F064C281E0809331030115110546
:1033E00019F0C8010E9433200E94CD0400913603D9
:1033F000109137032091380330913903601B710B12
:10340000820B930B68397A438105910508F403C256
:103410000AE010E0C12CD12C760180E10E9460040A
:10342000092E000CAA0BBB0BC80ED91EEA1EFB1EF0
:103430000150110991F7C701B6010E94DB1C20E081
:1034400030E040E251E40E94AE1E0E94201F072E91
:10345000000C880B990B0E94DB1C20E030EC4FE73E
:1034600054E40E94AE1E20E030E040EA50E40E94A6
:103470003A1D4B015C010AE010E0C12CD12C760111
:1034800082E10E946004092E000CAA0BBB0BC80E3F
:10349000D91EEA1EFB1E0150110991F7C701B601A2
:1034A0000E94DB1C20E030E040E251E40E94AE1EAE
:1034B0000E94201F072E000C880B990B0E94DB1C1A
:1034C00020E030EC4FE754E40E94AE1E20E030E0F4
:1034D00040EA50E40E943A1D6B017C010AE010E0D2
:1034E000412C512C320181E10E946004092E000C14
:1034F000AA0BBB0B480E591E6A1E7B1E01501109F8
:1035000091F7C301B2010E94DB1C20E030E040E2F1
:1035100051E40E94AE1E0E94201F072E000C880B53
:10352000990B0E94DB1C20E030EC4FE754E40E9432
:10353000AE1E20E030E040EA50E40E943A1D20E058
:1035400030E048EC52E40E94AE1E2B013C0120E02A
:1035500030E040E05FE3C701B6010E94D41C87FD64
:10356000E0C120E030E040E85FE3C701B6010E941F
:10357000D41C87FDDFC120E030E040EC5FE3C701F1
:10358000B6010E94D41C87FDDFC120E030E040E09E
:1035900050E4C701B6010E94D41C87FDDEC120E0C3
:1035A00030E040E250E4C701B6010E94D41C87FD20
:1035B000DEC120E030E040E450E4C701B6010E94E3
:1035C000D41C87FDDEC123E333E343E550E4C701A8
:1035D000B6010E94D41C87FD6DC126E636E646E69C
:1035E00050E4C701B6010E94D41C87FD6CC120E0E5
:1035F00030E040E850E4C701B6010E94D41C87FDCA
:103600006BC12AE939E949E850E4C701B6010E94D3
:10361000D41C87FD6AC123E333E343E950E4C701C7
:10362000B6010E94D41C87FD69C123E333E343EA5A
:1036300050E4C701B6010E94D41C18160CF467C1EF
:10364000BDE9CB2EB1E0DB2E86018BE0E82EF12C1C
:103650000E94CD0420912C0330912D0340912E0324
:1036600050912F03621B730B840B950B683C710503
:103670008105910508F474C00E94CD0460932C0369
:1036800070932D0380932E0390932F0370E060E0DE
:1036900085EE92E00E94371181E08093F9028093D9
:1036A000FA021092F2021092F1022AE030E0309316
:1036B000F4022093F3023092F8022092F702309243
:1036C000F6022092F50263E472E085EE92E00E9439
:1036D0005F13B60185EE92E00E9446131092F2024B
:1036E0001092F10248E250E05093F4024093F3024A
:1036F0006AE472E085EE92E00E945F1322E0B50179
:10370000A40185EE92E00E9467136EE472E085EEFC
:1037100092E00E9446131092F2021092F10286E4A7
:1037200090E09093F4028093F30261E572E085EEFD
:1037300092E00E945F1320E030E04AE754E4C301C6
:10374000B2010E943A1DAB01BC0122E085EE92E07D
:103750000E94671365E572E085EE92E00E944613D1
:1037600080913103882309F456C09CE0E916F104E6
:1037700009F451C00E94CD04C0903203D0903303AD
:10378000E0903403F09035039B01AC012C193D0906
:103790004E095F0969017A0132E3C316D104E104DD
:1037A000F104C8F1609332037093330380933403C0
:1037B0009093350369E572E08AE393E00E945F131A
:1037C0006EE572E08AE393E00E945F13B8018AE33A
:1037D00093E00E945F136EE572E08AE393E00E943B
:1037E0005F1323E0B501A4018AE393E00E9467130D
:1037F0006EE572E08AE393E00E945F1325E0B30177
:10380000A2018AE393E00E94671368E771E08AE30C
:1038100093E00E94EB1280E090E0892B09F447CD01
:103820000E947705882309F442CD0E9400003FCD15
:10383000750157013FEFA31AB30AF7018081082EE3
:10384000000C990B0E94CB1C892B91F70150110998
:103850000C0D1D1DF8018081082E000C990B0E9493
:10386000CB1C892B31F00E151F0518F001501109E2
:10387000F1CF0F5F1F4FA8014E195F095E834D8383
:10388000CE14DF0420F4B701C6010E947E21E98135
:10389000FA818D819E81E80FF91F10828ECD6EE333
:1038A00072E0C8010E948721892B09F097CD109200
:1038B000310394CDFAE8CF2EF1E0DF2E8601A6E0A9
:1038C000EA2EF12CC5CE77E8C72E71E0D72E8601FF
:1038D000E7E0EE2EF12CBCCE5EE8C52E51E0D52EF1
:1038E000860168E0E62EF12CB3CE33E9C32E31E039
:1038F000D32E860149E0E42EF12CAACE97E9C92EF9
:1039000091E0D92E86012AE0E22EF12CA1CEB2EA76
:10391000CB2EB1E0DB2E04EA11E08CE0E82EF12C96
:1039200097CEA8EBCA2EA1E0DA2E0CEA11E0F12C1A
:10393000E12C8ECEE2EBCE2EE1E0DE2E0EEB11E09E
:10394000EE24E394F12C84CE64ECC62E61E0D62EF6
:10395000860172E0E72EF12C7BCE48ECC42E41E0CC
:10396000D42E0FEC11E053E0E52EF12C71CE26EDB4
:10397000C22E21E0D22E0DED11E034E0E32EF12C29
:1039800067CE84EEC82E81E0D82E0BEE11E095E0D4
:10399000E92EF12C5DCE91110C94A71D803219F007
:1039A00089508550C8F708950E94161D08F481E0DB
:1039B0000895E89409C097FB3EF490958095709522
:1039C00061957F4F8F4F9F4F9923A9F0F92F96E96B
:1039D000BB279395F695879577956795B795F111E0
:1039E000F8CFFAF4BB0F11F460FF1BC06F5F7F4F7D
:1039F0008F4F9F4F16C0882311F096E911C077238F
:103A000021F09EE8872F762F05C0662371F096E897
:103A1000862F70E060E02AF09A95660F771F881F66
:103A2000DAF7880F9695879597F90895990F00080A
:103A3000550FAA0BE0E8FEEF16161706E807F90780
:103A4000C0F012161306E407F50798F0621B730B1B
:103A5000840B950B39F40A2661F0232B242B252B9C
:103A600021F408950A2609F4A140A6958FEF811D3F
:103A7000811D08950E944D1D0C94C11D0E94B31D0F
:103A800038F00E94BA1D20F0952311F00C94AA1D65
:103A90000C94B01D11240C94F51D0E94D21D70F3DE
:103AA000959FC1F3950F50E0551F629FF001729FE3
:103AB000BB27F00DB11D639FAA27F00DB11DAA1FF2
:103AC000649F6627B00DA11D661F829F2227B00D3F
:103AD000A11D621F739FB00DA11D621F839FA00DCA
:103AE000611D221F749F3327A00D611D231F849F1A
:103AF000600D211D822F762F6A2F11249F57504071
:103B00009AF0F1F088234AF0EE0FFF1FBB1F661FEB
:103B1000771F881F91505040A9F79E3F510580F0B4
:103B20000C94AA1D0C94F51D5F3FE4F3983ED4F36A
:103B3000869577956795B795F795E7959F5FC1F758
:103B4000FE2B880F911D9695879597F908959927D3
:103B50008827089597F99F6780E870E060E00895EE
:103B60009FEF80EC089500240A9416161706180695
:103B70000906089500240A94121613061406050671
:103B80000895092E0394000C11F4882352F0BB0F02
:103B900040F4BF2B11F460FF04C06F5F7F4F8F4F65
:103BA0009F4F089557FD9058440F551F59F05F3FA0
:103BB00071F04795880F97FB991F61F09F3F79F04F
:103BC00087950895121613061406551FF2CF4695D1
:103BD000F1DF08C0161617061806991FF1CF869553
:103BE0007105610508940895E894BB276627772737
:103BF000CB0197F908952F923F924F925F926F9267
:103C00007F928F929F92AF92BF92CF92DF92EF926C
:103C1000FF920F931F93CF93DF93CDB7DEB7CA1BED
:103C2000DB0B0FB6F894DEBF0FBECDBF09942A8818
:103C3000398848885F846E847D848C849B84AA84C0
:103C4000B984C884DF80EE80FD800C811B81AA814D
:103C5000B981CE0FD11D0FB6F894DEBF0FBECDBF18
:103C6000ED010895A29FB001B39FC001A39F700D05
:103C7000811D1124911DB29F700D811D1124911D74
:103C800008955058BB27AA270E94591E0C94C11DA5
:103C90000E94B31D38F00E94BA1D20F039F49F3FF6
:103CA00019F426F40C94B01D0EF4E095E7FB0C9487
:103CB000AA1DE92F0E94D21D58F3BA176207730795
:103CC0008407950720F079F4A6F50C94F41D0EF402
:103CD000E0950B2EBA2FA02D0B01B90190010C011C
:103CE000CA01A0011124FF27591B99F0593F50F434
:103CF000503E68F11A16F040A22F232F342F44278C
:103D0000585FF3CF469537952795A795F040539583
:103D1000C9F77EF41F16BA0B620B730B840BBAF053
:103D20009150A1F0FF0FBB1F661F771F881FC2F7BE
:103D30000EC0BA0F621F731F841F48F487957795D2
:103D40006795B795F7959E3F08F0B0CF9395880F8C
:103D500008F09927EE0F9795879508950E94C21E47
:103D60000C94C11D0E94BA1D58F00E94B31D40F072
:103D700029F45F3F29F00C94AA1D51110C94F51DF4
:103D80000C94B01D0E94D21D68F39923B1F3552302
:103D900091F3951B550BBB27AA276217730784075E
:103DA00038F09F5F5F4F220F331F441FAA1FA9F3F4
:103DB00035D00E2E3AF0E0E832D091505040E695E2
:103DC000001CCAF72BD0FE2F29D0660F771F881F43
:103DD000BB1F261737074807AB07B0E809F0BB0B36
:103DE000802DBF01FF2793585F4F3AF09E3F51054A
:103DF00078F00C94AA1D0C94F51D5F3FE4F3983EF7
:103E0000D4F3869577956795B795F7959F5FC9F732
:103E1000880F911D9695879597F90895E1E0660FB3
:103E2000771F881FBB1F621773078407BA0720F02C
:103E3000621B730B840BBA0BEE1F88F7E095089595
:103E40000E94271F6894B1110C94F51D08950E94DB
:103E5000DA1D88F09F5798F0B92F9927B751B0F025
:103E6000E1F0660F771F881F991F1AF0BA95C9F7FE
:103E700014C0B13091F00E94F41DB1E008950C948B
:103E8000F41D672F782F8827B85F39F0B93FCCF33E
:103E9000869577956795B395D9F73EF4909580957B
:103EA000709561957F4F8F4F9F4F08950E94161D0B
:103EB00008F48FEF08950E94161D880B990B089542
:103EC000A1E21A2EAA1BBB1BFD010DC0AA1FBB1F1E
:103ED000EE1FFF1FA217B307E407F50720F0A21B90
:103EE000B30BE40BF50B661F771F881F991F1A94FD
:103EF00069F760957095809590959B01AC01BD0127
:103F0000CF0108950E94321E332312F48A1B9B0BAB
:103F10000C948C1F0E94321EB7FF0895821B930BD6
:103F20000895EE0FFF1F0590F491E02D09940F9373
:103F30001F93CF93DF938230910510F482E090E0DD
:103F4000E091D903F091DA0330E020E0B0E0A0E0A6
:103F5000309799F42115310509F44AC0281B390B13
:103F600024303105D8F58A819B816115710589F16D
:103F7000FB0193838283FE0111C040815181028144
:103F8000138148175907E0F04817590799F410971B
:103F900061F012960C93129713961C933296CF01F0
:103FA000DF91CF911F910F9108950093D903109342
:103FB000DA03F4CF2115310551F04217530738F0D9
:103FC000A901DB019A01BD01DF01F801C1CFEF01B9
:103FD000F9CF9093DA038093D903CDCFFE01E20F9E
:103FE000F31F819391932250310939832883D7CFCE
:103FF0002091D7033091D803232B41F42091020163
:10400000309103013093D8032093D703209100010E
:10401000309101012115310541F42DB73EB7409192
:10402000040150910501241B350BE091D703F09159
:10403000D803E217F307A0F42E1B3F0B281739070C
:1040400078F0AC014E5F5F4F2417350748F04E0FF4
:104050005F1F5093D8034093D703819391939FCFD1
:10406000F0E0E0E09CCFCF93DF930097E9F0FC0114
:10407000329713821282A091D903B091DA03ED0135
:1040800030E020E01097A1F420813181820F931F4E
:104090002091D7033091D8032817390709F061C060
:1040A000F093D803E093D703DF91CF910895EA010D
:1040B000CE17DF07E8F54A815B819E014115510566
:1040C000B1F7E901FB83EA8349915991C40FD51FE8
:1040D000EC17FD0761F4808191810296840F951F92
:1040E000E90199838883828193819B838A83F0E0AD
:1040F000E0E012968D919C9113970097B9F52D9160
:104100003C911197CD010296820F931F2091D70306
:104110003091D8032817390739F6309751F51092A6
:10412000DA031092D903B093D803A093D703BCCF7E
:10413000D383C28340815181840F951FC817D9074B
:1041400061F44E5F5F4F88819981480F591F5183F9
:1041500040838A819B81938382832115310509F0F5
:10416000B0CFF093DA03E093D9039ECFFD01DC01D9
:10417000C0CF13821282D7CFB0E0A0E0E2ECF0E231
:104180000C94FD1D8C01009751F4CB010E94971FE8
:104190008C01C801CDB7DEB7E0E10C94191EFC011B
:1041A000E60FF71F9C0122503109E217F30708F4CC
:1041B0009DC0D901CD91DC911197C617D70798F012
:1041C000C530D10530F3CE0104978617970708F361
:1041D000C61BD70B2297C193D1936D937C93CF01CC
:1041E0000E943320D6CF5B01AC1ABD0A4C018C0E65
:1041F0009D1EA091D903B091DA03512C412CF12CD2
:10420000E12C109731F58091D7039091D803881550
:10421000990509F05CC04616570608F058C0809111
:10422000000190910101009741F48DB79EB7409134
:10423000040150910501841B950BE817F90708F05C
:1042400055C0F093D803E093D703F90171836083DD
:10425000A0CF8D919C91119712966C901297139606
:104260007C901397A815B90559F56C0142E0C40E6E
:10427000D11CCA14DB0420F1AC014A195B09DA0134
:104280001296159780F06282738251834083D90120
:104290006D937C93E114F10471F0D7011396FC93B4
:1042A000EE93129776CF22968C0F9D1FF901918382
:1042B0008083F301EFCFF093DA03E093D90369CF62
:1042C0004816590608F42C017D01D3019ACFCB0181
:1042D0000E94971F7C01009749F0AE01B8010E942F
:1042E0007E21C8010E943320870153CF10E000E0F7
:1042F00050CF81E090E0F8940C949721FB01DC0111
:1043000002C001900D9241505040D8F70895FB0132
:10431000DC018D91019080190110D9F3990B08955A
:10432000FB01DC0101900D920020E1F70895F89463
:10433000FFCF0000DB038000000000008E0FDB04D5
:10434000E812E7121C08A10B6F0B060B850AC60AC0
:104350003A12480DAD0CFF0717098809F909371102
:10436000BF1060107F149D07000000008E0FDB045B
:10437000E812E7121C08A10B6F0B060B850AC60A90
:104380003A12480D540DFF0717098809F90937112A
:10439000BF1060105514551400000000AD05DB047B
:1043A0000805FA056B0517055D050D0A006E616EBF
:1043B00000696E66006F7666004D4F5346455400A7
:1043C0004947425400554A5400545249414300441D
:1043D000494143003F00554E4B4E4F574E00444914
:1043E0004F4445005A656E65722044696F646500EC
:1043F0005A454E45520053435200424A542D4342BF
:1044000000424A545F434200424A542D4345004211
:104410004A545F434500424A542D434300424A54A4
:104420005F434300506C6F74726F6E697800564939
:104430002043686172616374657269737469637340
:10444000204C6162004275696C7420627900436C93
:104450006F756454726F6E697800496E6974696132
:104460006C697A696E672E2E2E00535441525400A7
:1044700053544F5000436F6D703A2000563A20005D
:10448000205600493A2000206D410044415441002B
:024490002C00FE
:107E000085E08093810082E08093C00088E18093C8
:107E1000C10086E08093C20080E18093C40084B7F3
:107E200014BE81FFD0D089E2C8D0259A86E020E335
:107E30003CEF91E0309385002093840096BBB09B8B
:107E4000FECF1D9AA8958150A9F7DD24D394A5E013
:107E5000EA2EF1E1FF2EA4D0813421F481E0BED0DE
:107E600083E024C0823411F484E103C0853419F422
:107E700085E0B4D08AC08535A1F492D0082F10E0F7
:107E800010930102009300028BD090E0982F882776
:107E9000802B912B880F991F9093010280930002F1
:107EA00073C0863529F484E099D080E071D06DC02C
:107EB000843609F043C07CD0E0910002F0910102C9
:107EC00083E080935700E895C0E0D1E069D08993C2
:107ED000809102028150809302028823B9F778D002
:107EE00007B600FCFDCF4091000250910102A0E0D6
:107EF000B1E02C9130E011968C91119790E0982F81
:107F00008827822B932B1296FA010C01D0925700EE
:107F1000E89511244E5F5F4FF1E0A038BF0749F7A5
:107F2000E0910002F0910102E0925700E89507B657
:107F300000FCFDCFF0925700E89527C08437B9F4D4
:107F400037D046D0E0910002F09101023196F093D3
:107F50000102E09300023197E4918E2F19D08091B5
:107F60000202815080930202882361F70EC0853798
:107F700039F42ED08EE10CD085E90AD08FE096CF6F
:107F8000813511F488E019D023D080E101D063CF8E
:107F9000982F8091C00085FFFCCF9093C600089574
:107FA000A8958091C00087FFFCCF8091C6000895FE
:107FB000F7DFF6DF80930202F3CFE0E6F0E098E12E
:107FC00090838083089580E0F8DFEE27FF270994EF
:107FD000E7DF803209F0F7DF84E1DACF1F93182F53
:0C7FE000DFDF1150E9F7F4DF1F91089576
:00000001FF
